:1000000000800020BD01000031190000E918000047
:10001000E9180000E9180000E9180000E9180000DC
:10002000E9180000E9180000E91800003119000083
:1000300031190000E9180000753700007938000018
:100040003119000031190000311900003119000088
:100050003119000031190000311900003119000078
:100060003119000031190000311900003119000068
:100070003119000031190000311900003119000058
:100080003119000031190000311900003119000048
:100090003119000031190000311900003119000038
:1000A0003119000031190000311900003119000028
:1000B0003119000031190000311900003119000018
:1000C0003119000031190000311900003119000008
:1000D00031190000311900003119000031190000F8
:1000E00031190000311900003119000031190000E8
:1000F00031190000B91E00003119000091390000CB
:10010000311900003D2400003119000031190000B0
:1001100031190000311900003119000031190000B7
:1001200031190000311900003119000031190000A7
:100130003119000031190000311900003119000097
:100140003119000031190000311900003119000087
:100150003119000031190000311900003119000077
:1001600031190000C92600003119000031190000C2
:100170003119000031190000311900003119000057
:100180003119000031190000311900003119000047
:100190003119000031190000311900003119000037
:1001A0003119000031190000311900003119000027
:1001B000311900003119000031190000564B4CF282
:1001C000205210B51A804DF628121A8000BF00BFC9
:1001D00001F0B2FB514B4FF010621A60504A9A6026
:1001E000504ADA60504A136813F4807304D14F49BF
:1001F0000B604FF4A85313604D4B1A78110703D5C9
:100200001A7842F008021A704A4B4B492A221A7097
:100210004A4A4B4B8B4204D252F8040F43F8040B6A
:10022000F8E7484B484900228B4202D243F8042B9E
:10023000FAE74649464A002352F8230041F82300D2
:1002400001336F2BF8D1434B434A802103F8011B44
:100250009342FBD1414B3D4A1A60414B8A221A70AE
:10026000A3F5805324225A70A0221A709A7992071B
:10027000FCD59A79D406FCD43A4A937903F00C035E
:10028000082B384BF9D103221A7140225A719A79FE
:100290009006FCD5334A9179324B4906FBD5324A58
:1002A000324911600221516020221A709A7902F0BD
:1002B0000C020C2AFAD12E4B2E4A1A602E4B2F4AD2
:1002C0001A6000225A60072243F8042C2C4AC3F813
:1002D0000C2D62B601F06AFC144B1B68DA0705D5D9
:1002E000284801F0E9FB284B284A1A60284B1B7864
:1002F0005B0609D5244C254B22689A4204D121483B
:1003000001F0DAFB0023236004F092FB01F01AFBFA
:1003100001F0E2FAFEE700BF0E2005403080044005
:10032000823F04000100002B10D0034014D0034092
:1003300002D0074000E007403490FF1FC06000007B
:100340002087FF1F3490FF1FA893FF1F0082FF1F0D
:100350000000000000E400E05FE400E008ED00E0E1
:100360000050064000400640448004400000030165
:1003700004800440C010050014E000E0FF76010096
:1003800000002020AAC223601CE00340A5C3945AA9
:1003900000F00740FFFFFFFFFFFFFFFFFFFFFFFF32
:1003A000FFFFFFFFFFFFFFFFFFFFFFFFFFFFFFFF5D
:1003B000FFFFFFFFFFFFFFFFFFFFFFFFFFFFFFFF4D
:1003C000FFFFFFFFFFFFFFFFFFFFFFFFFFFFFFFF3D
:1003D000FFFFFFFFFFFFFFFFFFFFFFFFFFFFFFFF2D
:1003E000FFFFFFFFFFFFFFFFFFFFFFFFFFFFFFFF1D
:1003F000FFFFFFFFFFFFFFFFFFFFFFFFFFFFFFFF0D
:10040000FFFFFFFFFFFFFFFFFFFFFFFFDEF9FFFF23
:1004100010B5054C237833B9044B13B10448AFF33E
:1004200000800123237010BD3490FF1F00000000E6
:10043000C4600000084B10B51BB108490848AFF371
:1004400000800848036803B910BD074B002BFBD0A0
:10045000BDE81040184700BF000000003890FF1FA3
:10046000C46000003490FF1F0000000010B5204859
:10047000204C82B001F05CFC42F2107001F0F4FDFF
:1004800041F2883001F044FB01210D2001F03AFBDC
:1004900001210D2001F022FB23680093164B009AE6
:1004A0001A6001E002F040FF02F07AFF0028F9DC58
:1004B00001F0BEFC002805DD01F0CAFC01F0B8FC2B
:1004C0000028F9DC42F210710C4800F04BFF0C4B95
:1004D00001221A7001E001F053FF01F041FF0028F2
:1004E000F9DC23680193019A064B1A6002B010BD33
:1004F00080380100AC90FF1F7C90FF1FA890FF1F69
:100500006190FF1F6490FF1FF0B583B001F090FC75
:10051000002805DC08E001F09BFC052001F0F8FA5A
:1005200001F086FC0028F6DC1620284E284D01F04C
:1005300075FC4FF47A7001F0EBFA33680093009F7A
:1005400000232B700A2001F0E3FA224800F03EFF5E
:1005500001F07EFCC4B2162C4FF000034FF01002E5
:1005600021461D482C701FD001F018F81A4801F0E0
:1005700005F80C21194802F03DFF174800F0FEFF76
:10058000162001F04BFC4FF47A7001F0C1FA2B7881
:10059000162BD7D133680193019B41F28832DB1BC4
:1005A0009342CFD803B0F0BD0023102221460A4861
:1005B00000F0F4FF084800F0E1FF0D21084802F0C8
:1005C00019FF054800F0DAFFE1E700BFAC90FF1F1C
:1005D0006390FF1FA890FF1F3887FF1F745B000008
:1005E000645B000008B51D21274801F085FE0E213F
:1005F000264801F081FE0521254801F07DFE254BAE
:100600001B780A2153B3244801F076FE05212048C7
:1006100001F072FE1121214801F06EFE204B2148AD
:10062000196800F0FBFF06211F4801F065FE052157
:10063000174801F061FE12211C4801F05DFE1C4BC1
:100640001848196800F0EAFF0621174801F054FE27
:100650001E211848BDE8084001F04EBE164801F0C2
:100660004BFE05210A4801F047FE1021134801F016
:1006700043FE134B0B48196800F0D0FF06210A48CF
:1006800001F03AFEC2E700BFA45A00003C5B000044
:100690009C5A00008B90FF1F585B0000D85A000046
:1006A0007890FF1F2087FF1F845B0000EC5A00003A
:1006B0005C90FF1F705A0000185B0000C45A0000D5
:1006C0007090FF1F2DE9F0414F4C8EB0812004F156
:1006D0000A0501E014F8010F01F0A0FBAC42F9D1CA
:1006E00001F0A6FB0028FBD001F0A2FB002815DDDD
:1006F00001F0AEFBC0B20628FAD1C82001F008FA1A
:100700000DF1030406E001F0A3FB04F8010F0A2039
:1007100001F0FEF901F08CFB0028F4DC06203B4CD4
:100720003B4D3C4F3C4E01F079FB9DF807009DF896
:1007300008109DF809209DF80A302070374829706C
:100740003A70337000F01AFF1221354802F052FE61
:1007500094F80080B8F1010F4AD00521314802F029
:1007600049FE2E4800F00AFF14212F4802F042FEF5
:1007700095F80080B8F1010F2FD00521294802F02B
:1007800039FE264800F0FAFE1121284802F032FE18
:100790003B78012B0BBF042105212548214802F09D
:1007A00029FE1E4800F0EAFE1721224802F022FE30
:1007B0003378012B07BF04211D481A48052102F098
:1007C00019FE164800F0DAFE23781BB92B780BB916
:1007D000194A13700EB0BDE8F0810421144802F0EC
:1007E00009FE0E4800F0CAFE134B83F80080CBE7E9
:1007F00004210F4802F0FEFD084800F0BFFE0E4B3A
:1008000083F80080B0E700BF005B00008790FF1F07
:100810006290FF1F5290FF1F8690FF1F3887FF1FB7
:100820008C5B0000A85B0000B05B0000C85B0000B0
:10083000A05B0000DC5B0000A590FF1F30B53E4CC4
:100840008FB0812004F10A0501E014F8010F01F0D6
:10085000E5FAAC42F9D101F0EBFA0028FBD001F047
:10086000E7FA002815DD01F0F3FAC0B20628FAD144
:10087000C82001F04DF90DF1030406E001F0E8FA9B
:1008800004F8010F0A2001F043F901F0D1FA002821
:10089000F4DC062001F0C2FA9DF809209DF808302A
:1008A000264C274D9DF807102648297043EA02235D
:1008B000238000F063FE1221234802F09BFD0A22F0
:1008C000002329781F4800F069FE01211F4802F02B
:1008D00091FD1C4800F052FE11211D4802F08AFDD6
:1008E0002188184800F09AFE0B211A4802F082FD78
:1008F000238819491348A1FB0331490900F08EFEF2
:100900000821164802F076FD0E4800F037FE2388D5
:100910001349B3F5967F02D2124B1B782BB9124ABA
:1009200000230B7013700FB030BD0F4B012000225D
:1009300008701A700FB030BD4C5B00008490FF1F30
:100940005390FF1F3887FF1FF45B0000085C000016
:100950000C5C0000205C0000898888882C5C00000A
:100960008A90FF1F8B90FF1F8890FF1FF0B5394CB6
:1009700091B0812004F10A0501E014F8010F01F0A3
:100980004DFAAC42F9D101F053FA0028FBD001F046
:100990004FFA002815DD01F05BFAC0B20628FAD143
:1009A000C82001F0B5F80DF10B0406E001F050FA93
:1009B00004F8010F0A2001F0ABF801F039FA002821
:1009C000F4DC062001F02AFABDF80F00224CBDF835
:1009D0001170224D224E03F0E5FD224903F0EAFE9C
:1009E0002060384603F0DEFD1E4903F0E3FE286078
:1009F00003F0F2FF30601C4800F0C0FD11211B48DD
:100A000002F0F8FC206803F0EFF9012402460B46DF
:100A10000094154800F00CFE0321154802F0EAFC92
:100A2000114800F0ABFD0F21124802F0E3FC2868EA
:100A300003F0DAF9009402460B460B4800F0F8FD8B
:100A400005210D4802F0D6FC074811B0BDE8F04082
:100A500000F094BD905A00008C90FF1F9890FF1FEB
:100A60007090FF1F000020413887FF1F385C000096
:100A70004C5C0000505C0000605C000070B5434CB2
:100A800090B0812004F10A0501E014F8010F01F093
:100A9000C5F9A542F9D101F0CBF90028FBD001F04E
:100AA000C7F900286FDD01F0D3F9C0B20628FAD1EA
:100AB000C82001F02DF80426002501F0B9F900281E
:100AC000FBD06C1E03AB1C4407E001F0C1F904F835
:100AD000010F0A20013501F01BF801F0A9F90028E7
:100AE000F3DC062001F09AF9013EE6D1284B294DAE
:100AF00029499DF82020BDF81A609DF81D401A6014
:100B0000BDF832002E600C6003F04CFD2349244CEC
:100B1000244E03F04FFE206003F05EFF1021306092
:100B2000214802F067FC206803F05EF901240246C8
:100B30000B4600941D4800F07BFD04211C4802F088
:100B400059FC1A4800F01AFD10211A4802F052FC14
:100B5000286803F027FD114903F02CFE03F044F947
:100B6000009402460B46114800F062FD0521124830
:100B700002F040FC0D4800F001FD0C4810B0BDE84B
:100B8000704000F0FBBC10B070BD00BF305B0000D7
:100B9000A090FF1F6C90FF1F5490FF1F000020418A
:100BA0006890FF1F7890FF1F685C00003887FF1F68
:100BB0007C5C0000845C0000985C000010B5124C66
:100BC00084B00721204600F029FD2046072100F0CF
:100BD00025FD0721204600F021FD204600F0CEFC37
:100BE00068460A4900F03CFE6946204600F0A0FC39
:100BF0000123074A19466846137000F045FE68460F
:100C000000F0EEFD04B010BD2087FF1FA05C0000C7
:100C10005190FF1F10B5104C84B00721204600F002
:100C2000FDFC2046072100F0F9FC0721204600F0DA
:100C3000F5FC204600F0A2FC6846084900F010FED2
:100C40006946204600F074FC054B002268461A7085
:100C500000F0C6FD04B010BD2087FF1FB05C00008F
:100C60008B90FF1F2DE9F0415E4C8EB0812004F186
:100C70000A0501E014F8010F01F0D0F8AC42F9D1F7
:100C800001F0D6F80028FBD001F0D2F8002815DDDD
:100C900001F0DEF8C0B20628FAD1C82000F038FF13
:100CA0000DF1030406E001F0D3F804F8010F0A2067
:100CB00000F02EFF01F0BCF80028F4DC4A4C4B4D4C
:100CC0009DF807209DF80930494FDFF85C81494EB7
:100CD0009DF80A1022702B709DF80B209DF80C30A7
:100CE00033700620397088F8002001F097F80C2145
:100CF000414802F07FFB2378012B54D005213F4867
:100D000002F078FB3E4800F039FC3E4B3E4A1B782F
:100D100001211170002B5AD014213C4802F06AFBCB
:100D20002B78012B07BF042139483448052102F0F4
:100D300061FB334800F022FC2378012B3BD01421C7
:100D4000344802F057FB3B78012B0BBF04210521EF
:100D50002F482A4802F04EFB294800F00FFC1721CB
:100D60002D4802F047FB23781BB998F80030012B7F
:100D700030D00521214802F03DFB214800F0FEFB68
:100D80001021264802F036FB3378012B07BF0421DF
:100D900023482448052102F02DFB19480EB0BDE878
:100DA000F04100F0EBBB0421194802F023FB14488A
:100DB00000F0E4FBB0E72B78012BC0D1124B1A787E
:100DC000012ABCD100221A70FFF724FFB7E7FFF712
:100DD000F5FEA1E704210E4802F00CFB084800F0E4
:100DE000CDFBCDE7245B00005890FF1F6090FF1FF4
:100DF0008090FF1F8990FF1FC45C0000A85B00006B
:100E00003887FF1F5190FF1F8B90FF1FD45C00009D
:100E1000A05B0000EC5C0000045D00001C5D0000B5
:100E2000305D0000385D00008190FF1F10B5104C50
:100E300084B00721204600F0F1FB2046072100F096
:100E4000EDFB0721204600F0E9FB204600F096FB71
:100E50006846084900F004FD6946204600F068FB3A
:100E6000054B012268461A7000F0BAFC04B010BDB0
:100E70002087FF1F785D00009C90FF1F70B5414CDC
:100E800090B0812004F10A0501E014F8010F00F090
:100E9000C5FFA542F9D100F0CBFF0028FBD000F040
:100EA000C7FF00286BDD00F0D3FFC0B20628FAD1DF
:100EB000C82000F02DFE0226002500F0B9FF002812
:100EC000FBD06C1E03AB1C4407E000F0C1FF04F82C
:100ED000010F0A20013500F01BFE00F0A9FF0028D9
:100EE000F3DC062000F09AFFC82000F011FE013E5E
:100EF000E3D19DF819009DF81A30234A234C244E63
:100F000043EA002382FB0330800803F04BFB2060A0
:100F1000054603F061FD1F493060284603F034FDAB
:100F2000F8B91D491D4A00230B70137011211C488C
:100F300002F060FA206802F057FF012402460B46D7
:100F40000094184800F074FB0421174802F052FA8C
:100F5000144800F013FB134810B0BDE8704000F0D7
:100F60000DBB124B1B78642BDBD10C4B0A4A1B7850
:100F700001211170002BD9D1FFF758FFD6E710B02F
:100F800070BD00BF5C5A0000676666669490FF1FE4
:100F90005C90FF1F000034427490FF1F9C90FF1F65
:100FA000885D00003887FF1F9C5D00005390FF1F85
:100FB00010B5104C84B00721204600F02FFB2046CE
:100FC000072100F02BFB0721204600F027FB2046DD
:100FD00000F0D4FA6846084900F042FC6946204611
:100FE00000F0A6FA054B012268461A7000F0F8FBE3
:100FF00004B010BD2087FF1FA45D00008290FF1F7A
:1010000070B53C4C8EB0812004F10A0501E014F863
:10101000010F00F003FFAC42F9D100F009FF0028F6
:10102000FBD000F005FF002815DD00F011FFC0B275
:101030000628FAD1C82000F06BFD0DF1030406E08C
:1010400000F006FF04F8010F0A2000F061FD00F037
:10105000EFFE0028F4DC0620274C284D00F0DEFED1
:101060009DF80A209DF80B30254822702B7000F067
:1010700085FA0D21234802F0BDF92678012E2ED0E5
:101080000521214802F0B6F91D4800F077FA0E213B
:101090001E4802F0AFF92E78012E10D005211A4813
:1010A00002F0A8F9164800F069FA23782BB92B78DA
:1010B0001BB91749174A0B7013700EB070BD04218D
:1010C000154802F097F90E4800F058FA114B104AF3
:1010D0001B781670002BE8D1FFF76AFFE5E70421C3
:1010E0000D4802F087F9064800F048FA084B1E70D8
:1010F000CDE700BF0C5B00005090FF1FA490FF1FC6
:101100003887FF1FB85D0000A85B0000C85D0000C5
:101110009090FF1F8290FF1FA05B000008B5FFF7B3
:10112000A1FDFFF7CFFAFFF76BFFFFF787FBFFF794
:101130001DFCFFF7A3FCBDE80840FFF79FBE00BF02
:1011400000B50D2083B000F0CFFCB0FA80F1490962
:101150000D2000F0C3FC044A044B12680192019A6E
:101160001A6003B05DF804FBAC90FF1F7C90FF1F7A
:1011700070B50A2084B000F0CBFC604800F026F97E
:1011800001F0EEF800282ADD5D4E0024347005E001
:101190000134E4B24FF4167000F0BAFC01F0E0F84C
:1011A00000281CDD01F0ECF80921C5B2554802F019
:1011B00021F9284602F0A2F9534800F0DFF90D2D7D
:1011C000E6D154B3FFF70EFA2946504802F012F95F
:1011D0004D4800F0D3F9012333700024DAE74C4B7B
:1011E0001C78162C25D0FFF78FF94A4B1A684A490C
:1011F000019201980A68474C824203D92268029200
:10120000029A0A601B680393039B9B1AB3F5FA6F5B
:1012100001D9FFF795FF04B070BD07213F4801F0E9
:101220006BF80C213E4802F0E5F8374800F0A6F9CB
:10123000B0E7334E3378012BD7D1FFF765F9312171
:10124000384802F0D7F8304800F098F92E4800F0FE
:1012500095F9FFF763FF2146334802F0CBF8334B93
:101260001B78012B0BBF042105213148314802F0C6
:10127000C1F8254800F082F917212F4802F0BAF88A
:101280002E4B1B78012B0BBF042105212848294830
:1012900002F0B0F81C4800F071F91C21284802F057
:1012A000A9F8284B1B78012B0BBF042105212048EE
:1012B000204802F09FF8144800F060F918212248F5
:1012C00002F098F8214B1B78012B07BF0421184826
:1012D0001848052102F08EF80B4800F04FF91C4B1E
:1012E0001A780AB901221A700A4B1A4A1968009131
:1012F000009911600022327078E700BFA890FF1FAC
:101300006190FF1FD85D00003887FF1FF45D00006B
:101310006390FF1FAC90FF1F7C90FF1F685A000076
:10132000E45D0000045E0000385E00008B90FF1F4B
:10133000A05B0000A85B0000505E00008A90FF1FC9
:10134000685E00009090FF1F885E0000A590FF1F60
:10135000A690FF1F6490FF1F014B00221A60704788
:10136000A890FF1F03680329D8BF4FF4FA51994290
:1013700021D0F0B472B6114B4CF220544DF6281225
:101380001C801A8000BF00BF0D4F0E4E0E4C112561
:1013900023F80E5C0A0C8BB200253A80338025803E
:1013A00062B64FF4807300BF00BF013BFBD1016008
:1013B000F0BC084670470846704700BF0E20054045
:1013C00004200540062005401620054072B6044B57
:1013D0004AF202614BF2804219801A8062B670476D
:1013E0000C20054008B5084600F07CFF012008BD30
:1013F00008B5084600F076FF012008BD38B508465C
:101400000D4604F0DDF804460146284600F074FF5E
:10141000204638BD10B508461446114600F06CFF52
:10142000204610BD00F0F8BF08B5084600F03AFFAE
:10143000003018BF012008BD08B5084600F010FFB5
:10144000003018BF012008BD0846114600F0DEBE7E
:10145000084600F003BF00BF084600F0BBBE00BF57
:1014600000F07EBE4B0803F1B76000F55840B0FBBA
:10147000F1F000F0F9BD00BF10B54B0803F1B76003
:10148000144600F55840B0FBF1F000F0EDFD2046A9
:10149000BDE8104000F038BE00F0A6BF00F070BFFD
:1014A00000F05EBF00F03EBF00F048BF0368064A90
:1014B0001B68934205D110B5C8B200F013FF01209C
:1014C00010BDC9B2184700BFF11300000368064AF7
:1014D0001B68934205D110B5C8B200F003FF01208C
:1014E00010BDC9B2184700BFF11300000368064AD7
:1014F0001B68934205D110B5C8B200F0F3FE01207D
:1015000010BDC9B2184700BFF11300000368064AB6
:101510001B68934205D110B5C8B200F0E3FE01206C
:1015200010BDC9B2184700BFF1130000704700BFDB
:101530002DE9F0438C688BB0ECB100250646894656
:101540002F462B46212201A9484600F0ABF932680C
:10155000202C234628BF2023D2F8048001A91A4654
:1015600030461D44E41AC0470744002CE9D13846F0
:101570000BB0BDE8F0832746F9E700BF00B5064A87
:10158000036812885B6883B001A9ADF804200222C9
:10159000984703B05DF804FB045F0000F0B5074610
:1015A0008BB0002A33D0012A08BF0A2251B321246C
:1015B00000E0F4B2B1FBF2F502FB1511C8B2092943
:1015C00000F1300198BFC8B20AA988BF3730214462
:1015D00088BFC0B201F8240C661E2946002DE8D150
:1015E00033B1013CE4B20AAB23442D2203F8242C8E
:1015F0003B6801AA11195B683846C4F1220298477A
:101600000BB0F0BD30228DF825202124E8E70368D7
:10161000C9B21B6898470BB0F0BD00BF0029BABF24
:1016200049422D2300230A22FFF7B8BFFFFFFFFF27
:101630002DE9F04385B080461946104616461F46F0
:101640009DF8305002F0BEFE002840F0B18027F037
:101650000044304621464FF0FF32594B02F0B2FEB3
:1016600098B9304621464FF0FF32554B02F08CFEC0
:1016700058B9D8F8003053495B6840460322984770
:101680008146484605B0BDE8F083304639464FF004
:1016900060424D4B02F08CFE002870D13046394636
:1016A0004FF06042494B02F065FE002867D130469A
:1016B00039460022002302F05DFE002863D18146F6
:1016C000002D65D0424B00240022104619463AA353
:1016D000D3E9002302F0DCFB01340B46E1B28D427A
:1016E0000246F2D83046394602F020FA0F46064646
:1016F00002F07EFE044602F055FB02460B463046E1
:10170000394602F011FA4B4606460F460A22214698
:101710004046FFF743FF0F2D28BF0F2501352E232D
:101720008146EDB28DF8003001240022294B30466D
:10173000394602F0ADFB0F46064602F059FE04ABF7
:101740002344C0B200F1300203F8102C02F03AFB3F
:1017500002460B463046394602F0E6F90134E4B25F
:10176000AC4206460F46E0D1D8F8003022465B680E
:10177000404669469847484605B0BDE8F083D8F82A
:101780000030154978E707F100474FF0010997E766
:1017900000220F4B3046394602F0C8F902F028FE0D
:1017A0004B4601460A224046FFF7F8FE814668E7AD
:1017B000D8F8003009495FE7000000A09999B93FC7
:1017C000FFFFEF7F105F0000FFFFEF41FFFFEFC162
:1017D0000000E03F000024400C5F0000085F0000B4
:1017E00010B50446006803F053F9204610BD00BF51
:1017F00038B543688B4201D3012038BD0D460446FD
:101800000131006803F06CFC0028F6D0A36884E87E
:101810002100002BF0D10370EEE700BFF8B50446BD
:10182000154632B9036803B11A700023A36020463D
:10183000F8BD0E461146FFF7DBFF074648B92068A2
:1018400010B103F025F9276000236360A3602046F0
:10185000F8BDA5603146206803F04CFEE7E700BF05
:1018600038B500230446036043608360037341B1CD
:1018700008460D4603F0A4FE294602462046FFF71F
:10188000CDFF204638BD00BF00B583B000238DF8E2
:101890000410012201A98DF80530FFF7BFFF03B046
:1018A0005DF804FBB2B1A9B138B584689C420ED989
:1018B000E41A013A0D469442016828BF14461944BF
:1018C0002246284603F0EAFE00232B5538BD0023AC
:1018D0000B7038BD704700BF08B5FEF7C7FDFFF7B6
:1018E00047FC01F08BFEFAE708B5104C08E02368CE
:1018F00059050DD423681A050FD42368DB0411D4CD
:1019000023685803F3D500F0DFFE23685905F1D5AD
:1019100000F0D2FA23681A05EFD502F039F82368EF
:10192000DB04EDD500F08AFDEAE700BF3480044017
:1019300008B5FFF7D9FF00BF014B10221A8070478E
:1019400000200540704700BF094908B50B6830B159
:101950006A461844A2F58052904202D208601846A6
:1019600008BD03F05FF80C2303604FF0FF3008BDA3
:101970003087FF1FEFF3138070B9EFF310836BB95B
:10198000EFF305825AB94FF48070EFF311832BB156
:10199000984228BF184670474FF0FF3070470F2A13
:1019A00001D81846F1E7014BD05CEEE7F0E300E028
:1019B000F0B44D1E2E46002400E00134B0FBF2F3DB
:1019C00002FB1300092800F130078ABF3730F8B254
:1019D000C0B206F8010F1846002BEED10A19537059
:1019E0004CB1107815F8016F28700133E01A83426A
:1019F00002F80169F5DB0846F0BC704710B40F4BE4
:101A000053F8302092F880422CB1012369B182F85A
:101A1000803010BC704703EBC0035B681A6841B9A3
:101A200022F002021A6010BC704782F8003110BC2C
:101A3000704742F003021A6010BC7047145F000048
:101A40001C4A02EBC00301295B6811D004291BD09A
:101A500052F83000002280F8802229B1022920D0DB
:101A6000032922D01A6070474FF480721A607047C1
:101A700052F830004FF4A27280F880121A601A688F
:101A800022F020021A60704752F830104FF4A27210
:101A9000012081F880021A601A6842F020021A6060
:101AA000704740F203121A6070474FF481721A6057
:101AB000704700BF145F000030B4054B054D064C65
:101AC000002210211A602A602060196030BC704723
:101AD00014D0034004D0034000D00340212801D893
:101AE000FFF78CBF704700BF212806D8044B53F87E
:101AF000303093F80002C0B270470020704700BF3A
:101B0000145F0000212801D8FFF79ABF704700BF7B
:101B10002DE9F843054672B6204F214B214A1B6838
:101B20003C68126862B6520102D5322B88BF01347C
:101B300095B3C3F5BB331C4EDFF86490DFF86480C7
:101B4000FF334FF47A72A6FB031302FB04F404EB99
:101B5000931472B6D9F800103A68D8F800E062B66B
:101B6000C1F5BB33FF33A6FB03031EF0806FC4EB4C
:101B700093134FF47A7002D0322988BF013200FBF0
:101B80000233B3F57A7F04D3013D05D004F57A74AE
:101B9000DFE701F033FDDCE7BDE8F883AC90FF1F21
:101BA00018E000E004ED00E0ABAAAAAAF8B52D4BBE
:101BB0002D49DFF8D0E0DFF8D0C02C4E2C4D2D4C55
:101BC0002D4A2E4F4FF4000018604FF080701860BF
:101BD0004FF0007018604FF0806018604FF00060A8
:101BE00018600020086028234BF6FF71CCF8001025
:101BF000CEF80030336013602B6023603B60B3622B
:101C00009362092245F8242CC4F8D80F05F57F65A6
:101C1000C7F8D41F07F5FF2707F5FA67C6F8F83F9E
:101C20002B6006F5FF26C4F8D42F05F5FD2504F535
:101C3000FF24386006F2F4761148316005F5FF653F
:101C400004F5FD642B602360026001F021FE192081
:101C5000FFF75EFF01F0A0FA40F21310BDE8F84074
:101C6000FFF756BF08E100E0048003401480034002
:101C7000248003402C8003401C80034034800340B8
:101C800000800B400C800340088003402DE9F84F92
:101C9000214B1B6807460BB101221A70DFF88890B0
:101CA0001E4D99F80040DFF884801D4E01343F2C12
:101CB0008ABF4FF0000A5FFA84FA5446AB462B788D
:101CC000A34216D1FFF756FE40281FDC33791B06CE
:101CD000F5D59BF8003001333F2B86BF0022134619
:101CE000DAB218F80330DBB2F3712A702B78A34212
:101CF000E8D00C490A4BFFB208F804700120BC225E
:101D0000087089F800A0DA70BDE8F88FFF28D6DDEA
:101D100001F074FCD3E700BF4091FF1F3D91FF1F0E
:101D200000A006403C91FF1F4491FF1FB890FF1F89
:101D30002B4A2C491368F0B543F4806313600A788A
:101D4000294F2A4E2A4D2B4C2B4900233B703370D0
:101D50002B7023700B70002A3DD0152A21D0274B01
:101D60001B78012B25D0052B30D01F2827D8002029
:101D700002460125224B234C1A7023495D70042230
:101D80004FF0020E88273C26402598729A704FF437
:101D9000005083F813E05A751F74DE7025700860D8
:101DA000F0BD1A4B40F213321A60144B1B78012B12
:101DB000D9D1174B4FF451721F281A60D7D9C0F3ED
:101DC0004432C0F3471500F01F00D3E7114B4FF426
:101DD00051721A60C9E7104B40F213321A60BEE725
:101DE00034800440F890FF1FB490FF1FB590FF1F90
:101DF0004491FF1F3D91FF1F3C91FF1F3487FF1F40
:101E000000A006402DE400E004E100E018C004401A
:101E100044A004401CC0044040A00440034B1B6885
:101E20005B0501D5FFF732BF704700BF3480044027
:101E3000054A064B10781B78C0B2DBB2984238BF17
:101E40004030C01A704700BFB490FF1FB590FF1F0D
:101E500030B4154B154C1A782378D2B2DBB29A42C3
:101E60001ED001333F2B0ED91149124B0878196847
:101E70000023C0B2237021B1D31A1A2B01DC002336
:101E80000B7030BC70470A480A49C05C0968DDB273
:101E9000C0B225700029F4D09A4238BF4032EBE737
:101EA0004FF0FF30EDE700BFB490FF1FB590FF1F6C
:101EB000FC90FF1FB090FF1FF0B4384B1A7912F05E
:101EC000300F2CD072B6997D01F0FF0200293DD071
:101ED00062B6334F334938780D78334E1C46C0B262
:101EE000EDB2431C402BE17928BF0023AB4202F145
:101EF000FF32C9B21CBFF154184612F0FF02F0D1F4
:101F00002A4B1B68C2B23A704BB1A84236BFC5F12A
:101F10004005401B40192728C4BF01221A701F49E1
:101F2000CA78D2B2150616D452060DD51B4B1B79B2
:101F30005B0609D51E4B1F491B6800220A7003B1BE
:101F40001A70164B3C22DA70F0BC70474022D979E7
:101F50005A7462B6E3E70B791C06E5D5164B174EAB
:101F60001C783378E4B2DBB29C420ED0144D01E011
:101F7000A3420AD00133402B28BF00230879E85C34
:101F8000C0B2C871087D0728F2D9DBB203493370AB
:101F90000B79180644BF7C23CB70C5E700A0064030
:101FA000B490FF1FB590FF1FFC90FF1FB090FF1F64
:101FB0004091FF1F3C91FF1F4491FF1F3D91FF1F68
:101FC000B890FF1F2DE9F84F214B1B6807460BB156
:101FD00001221A70DFF888901E4D99F80040DFF852
:101FE00084801D4E0134272C8ABF4FF0000A5FFA0F
:101FF00084FA5446AB462B78A34216D1FFF7BAFCBD
:1020000040281FDC33791B06F5D59BF800300133DF
:10201000272B86BF00221346DAB218F80330DBB252
:10202000F3712A702B78A342E8D00C490A4BFFB217
:1020300008F804700120AC22087089F800A0DA705A
:10204000BDE8F88FFF28D6DD01F0D8FAD3E700BF4E
:10205000BC91FF1FB991FF1F00C00640B891FF1F40
:10206000C091FF1F5091FF1F1C4BDFF894C01A68EE
:102070001B49F0B542F480521A4D1A60DFF884E033
:10208000194F1A4E1A4C00238CF800304FF451723D
:102090002B701F2840F213358EF800303B703370E0
:1020A00025600A6012D819460124124A124D117097
:1020B0001248547000212C27402693724FF40034AC
:1020C00091701174D7702E700460F0BDC0F344316C
:1020D000C0F3471400F01F03E7E700BF348004405B
:1020E0000CC004404D91FF1FB991FF1FB891FF1F15
:1020F00008C0044000C0064031E400E004E100E014
:102100004C91FF1FC091FF1F144B14499B7803F0A3
:10211000EC0200F003031343420700F00F0248BF34
:1021200043F01003042A8B7013D00C4B0B4A5B79DD
:10213000C10603F0EF0348BF43F0100353719379D6
:10214000820603F0EF03054A48BF43F01003937182
:1021500070478B7943F040038B71E6E700C006407F
:10216000F8B5134B1B68DB041FD5124C237823B141
:1021700001F044FA2378002BFAD10F4B0F4A104D8F
:10218000104F114E114C12484FF4003119600023CA
:10219000D37040F203113960316029681579D27922
:1021A0002370037011B101230B70F8BDF8BD00BF9F
:1021B00034800440B891FF1F84E100E000C0064075
:1021C0004891FF1F08C004400CC004404C91FF1F01
:1021D0004D91FF1F0A4A38B50546137803F0FF04F6
:1021E000002BFAD101212846FFF78CFC2146284616
:1021F000FFF774FC034A044B52F835201A6038BDCF
:10220000B891FF1F145F0000BC91FF1F09B140F09F
:1022100080000F4A1378984219D010B40D4C2468EE
:10222000E40412D503F07F03082B02D10A4B0024EB
:102230001C60002900F07F0314BF60214421082B9B
:1022400003D1054B41F440711960107010BC704708
:102250003587FF1F348004400CC00440704700BF26
:102260000D4B1B6813F4805305D0212805D90B4B67
:1022700000201860704718467047094B10B5074C8E
:1022800053F8303023600121FFF73CFC2368002223
:102290001A70012010BD00BF348004404891FF1F18
:1022A000145F00000C4B1B6813F4805306D00E28FB
:1022B00006D00A4A537B03F0FE0353730020704795
:1022C000074B064A40F202311960537B43F0010389
:1022D00053730120704700BF3480044000C00640A3
:1022E00004C00440034B1B68DB0401D5FFF76ABE42
:1022F000704700BF3480044070B5094E044645184D
:10230000AC4204F101040AD03368DB04F8D514F8B8
:10231000010CFFF757FEAC4204F10104F4D170BD8B
:102320003480044010B5044C237823B101F066F9E1
:102330002378002BFAD110BDB891FF1F064A074B36
:102340001B781078DBB2C0B283422CBF273000F17B
:10235000FF30C01A704700BFB991FF1FC091FF1F27
:10236000054A064B10781B78C0B2DBB2984238BFE2
:102370004030C01A704700BF4C91FF1F4D91FF1FA6
:1023800030B4154B154C1A782378D2B2DBB29A428E
:102390001ED001333F2B0ED91149124B0878196812
:1023A0000023C0B2237021B1D31A1A2B01DC002301
:1023B0000B7030BC70470A480A49C05C0968DDB23E
:1023C000C0B225700029F4D09A4238BF4032EBE702
:1023D0004FF0FF30EDE700BF4C91FF1F4D91FF1F05
:1023E0007891FF1F4891FF1F084A094B12781B780C
:1023F000DBB29A4207D00133402B28BF0023054AA5
:10240000D05CC0B270474FF0FF3070474C91FF1F57
:102410004D91FF1F7891FF1F054B064A1B78064917
:102420001268DBB20B700AB100231370704700BF53
:102430004D91FF1F4891FF1F4C91FF1F30B42B4B54
:102440001A7994061FD52A48DA7903782949013385
:102450003F2B0978C8BF00238B42D2B203D0264C51
:10246000D9B2E2540170254A116861B1244A127848
:10247000D2B2934236BFC2F140029B1A9B18272B5F
:10248000C4BF01230B70194AD378DBB2180611D4EC
:102490005A060DD5154B1B795B0609D5194B1A4900
:1024A0001B6800220A7003B11A70104B2C22DA70DC
:1024B00030BC704711790906EAD5144910480C78E8
:1024C0000178C9B28C420DD04A1C272A84BF002152
:1024D0000A460F4D054C98BFD1B2AA5CD2B2E27148
:1024E0000170D5E76C21D170D2E700BF00C0064073
:1024F0004C91FF1F4D91FF1F7891FF1F4891FF1FC7
:10250000B991FF1FBC91FF1FB891FF1FC091FF1F22
:102510005091FF1F431E032B14D872B60A4951F87D
:10252000230068B170B4094C058834F8132046685C
:1025300041F82360521B24F8132062B670BC704728
:1025400062B67047002070471C92FF1F9093FF1FD8
:10255000013803280BD872B6074B53F8203043B12B
:1025600000205B680130002BFBD162B67047002071
:1025700070471846F9E700BF7092FF1F30B472B67B
:102580002B4A13781D0706D52A4B196A002936D025
:10259000996A002941D053781C0706D5254B196C40
:1025A00000293ED0996C002939D09378190705D5B8
:1025B000204B196E002936D0996E89B1D3781B074C
:1025C00007D51C4BD3F880207AB3D3F8882011218B
:1025D0003AB162B6184B00221A7030BC00F07EBED1
:1025E0000D21154C154D227843F8315003EBC103F2
:1025F0000830013A5860227062B630BC704704223D
:102600000D4C0F4D217843F8325003EBC2030830D4
:102610004A1E5860227062B6EFE70521E1E7092102
:10262000DFE70822ECE70C22EAE71022E8E700BF28
:102630004C6000000080FF1F9992FF1FC8004000FF
:1026400088004000431E032B1DD81B4A400140F068
:10265000100030B4104472B6184CE25C032A1BD848
:10266000DFE802F00212151703220D88E25410F081
:10267000080F14BFC823882343EA054308310360C9
:10268000416062B630BC704708300222EDE7052297
:10269000EBE708300422E8E7094A52F8230038B192
:1026A000084A52F82300416042F8231062B6E9E775
:1026B00042F82310034AF7E70080FF1FA892FF1F8C
:1026C0007092FF1F8092FF1F2DE9F04FDFF80CB3CF
:1026D000DFF80CA387B044E0AB4F4FEA930807EB59
:1026E000C809013ED9F8042003F00803F6B2A2F1AC
:1026F000080003F0FF04002B40F0028157F8383047
:102700001B0C99B222F8081C002B00F0F0809F4BA4
:1027100022F8064C42F8044C53F82620002A00F018
:10272000C5829B4D55F8263058609A4C45F82600D6
:1027300034F81630194424F8161000F0AFFD0028C4
:1027400000F0AD82944A954B19F0080F00F1080093
:1027500018BF1346C9F8040047F8383008238BF82F
:1027600000309BF80040E4B261071AD58C4B1B780F
:10277000A3B18C490A7802F0FF0322B1013BDBB21E
:102780000B7003B900BE88490A7802F0FF032AB132
:10279000013BDBB20B70002B00F0578204238BF857
:1027A000003004F0080303F0FF02002B00F0CC809F
:1027B0009AF80030DBB21E098ED19C08DFF8C89170
:1027C00059F8342009EBC401C2F38302013A496885
:1027D0000C2A00F28880DFE802F07C7C8686868600
:1027E00086864786868607000868704D4A68704F5F
:1027F000704E286081B240F28160674B6A604FF092
:10280000010E0022814249F834303A60C9F81020A4
:10281000C9F8182086F800E05B4C00F2E380B1F5BF
:10282000D06F80F04683B1F5817F00F0FC8200F22A
:102830008D82802900F07783822940F0FA82A9886E
:1028400001F07F01042900F2F4825B485B4C8900AF
:102850000844227062700278930740F1588484F82B
:1028600000E04FF0020E42E3514F3A6832B3544B4E
:10287000504E5449188834780D784028864645F0E3
:10288000020828BF4FF0400E002C84F00104347081
:10289000CEEB00000CBF8824C82409EBC80680B228
:1028A00085F0010544EA0E447260188049F838400A
:1028B00072440D70002800F045813A603B4B1A8845
:1028C000B2F5A06F0FD100219A7859703E4B1A7063
:1028D00009E0364A108842F22102904200F0378126
:1028E0002D4A49F83420394A0123137036E72A4A21
:1028F0002A4B19F0080F18BF134647F838302DE758
:1029000000F0ECFC324A334952F82630002B00F03C
:10291000D18158688C5D42F8260003F10802C9F89D
:102920000420032C05D8DFE804F02C02292602221B
:102930008A551A8819F0080F0CBF8823C82343EA68
:10294000024347F8383009E7E00700F181812106AA
:1029500000F1F281A20706D51F4A20491378022010
:10296000DBB213700870E30602D51C4B10221A70FC
:1029700007B0BDE8F08F04228A55DAE705228A55B0
:10298000D7E703228A55D4E70080FF1F1C92FF1F60
:10299000C891FF1F9093FF1FC800400088004000AF
:1029A000A492FF1F2D92FF1FAC92FF1F9092FF1F5A
:1029B000C491FF1F2C92FF1FC02007409C92FF1F55
:1029C000D891FF1F9892FF1F98200740942007403E
:1029D0007092FF1FA892FF1F8820074080200740A9
:1029E0009020074042F22100814200F02A8100F24B
:1029F000D880B1F5086F00F07682B1F5106F40F025
:102A00001882226AB349A8780870120600F13A8346
:102A1000D9F82820B049130600F10C83D9F83020EA
:102A2000AD49150600F10183D9F83820AA491406EA
:102A300000F1F682D9F84020A749100600F14A8338
:102A4000D9F84820A449120600F13F83D9F8502054
:102A5000A149130600F13483D9F858209E49150680
:102A600000F12983D9F860209B49140600F11E83E8
:102A7000D9F868209849100600F11383D9F870201E
:102A80009549120600F10883D9F878209249130677
:102A900000F1FD82D9F880208F49150600F13183BD
:102AA000D9F888208C49140600F12583D9F89020A4
:102AB0008949100600F11983D9F898208649120631
:102AC00000F10D838548864A864901908648874DE6
:102AD000874C049700230596029580460F461646BC
:102AE0001D460394306828B1446800F0F7FB204687
:102AF000002CF9D100233360029B38681A4600236A
:102B000042F8253028B1446800F0E8FB2046002C4C
:102B1000F9D100223A60019A98F80030114600225B
:102B200041F8042B039A0191023B4FF0000122F877
:102B30001510032B00F22B81DFE813F07001250143
:102B400070012501BEF1400F18BF0022B5E6694AA9
:102B50000D784878157050708D78C8789570D07061
:102B600010680D79157186284D79897955719171A3
:102B700000F09B816049614E0A78307882F001054F
:102B8000002842F002020D700CBF8821C82149F8CC
:102B9000321009EBC20280F0010000213070516058
:102BA0009EE642F22120814240F0CB81544B554CAD
:102BB0005549A8781D682560CDF804E0087000200C
:102BC00002908046844604464B490D7845F0020E3B
:102BD00009EBCE030393019B002B039B5C600CBFAE
:102BE0008824C82444EA080385F0010449F83E30EB
:102BF00032700C70DFF8E0E0404BDFF8FC8000281A
:102C000040F01E81BCF1400F1BD144F0020C09EBD7
:102C1000CC03029CDFF8C0E05C60002A40F0268113
:102C2000020442F088029DF804304EF83C2004442F
:102C300033700D702346402803D10020334A3B6097
:102C40001080334A012313704DE600F0B3FCA5E574
:102C5000214B2F4828491A614FF0020E80F800E0FE
:102C60002C4F0A702C49196099602C4E2C4D2D4C1C
:102C70009A610D213970FF213170DFF8B8E02970B9
:102C80002270294D294A8EF800109F27012406F84A
:102C9000047C5D600470DA6007B0BDE8F08F244A00
:102CA00047F8380013780133137057E543F82600CE
:102CB0000E4D3AE58B5D032B00F2F08001A252F835
:102CC00023F000BF5D2700005D270000812D00007C
:102CD0007B2D0000A492FF1F0080FF1F8092FF1F2A
:102CE0001C92FF1F7092FF1FA892FF1FC891FF1F29
:102CF0009093FF1F9893FF1F9892FF1F2C92FF1F26
:102D0000AC90FF1FA093FF1FBC92FF1FD891FF1F25
:102D100094200740C02007408800400088200740DA
:102D20008020074098200740DC91FF1F3092FF1F52
:102D30009992FF1F8C200740C149C24B80220D2071
:102D400008701A70A2077FF50EAE05E640F2023257
:102D5000914240F0EE80A98801F07F01042968D8F3
:102D60006A88002A65D1B648CDF804E08900084495
:102D7000017841F00201017021E701238B55EDE458
:102D800000238B55EAE44FF0010388F80030013549
:102D9000042D06F1040607F1040708F101087FF489
:102DA000A1AEA94CA94B2278A94D049F059E0021F4
:102DB00029701A70130700F105816278A549DFF8C0
:102DC000A0820A7010074FF00001C9F83010C9F84E
:102DD000381000F1E080A049A2780A700021C9F8FB
:102DE0005010C9F858101107DFF8748200F1018102
:102DF000E2789A499A4C0A7000211207C9F87010BB
:102E0000C9F8781000F1B08033780193002183F085
:102E10000102C9F89010C9F89810D0E64FF00003ED
:102E200088F80030B3E7A98801F07F01042940F257
:102E30008D80834A0F2313708A4A0123137052E551
:102E400040287FF6E2AE44F002040EEBC401029E7D
:102E50004E60BAB19DF80410834A19703346403869
:102E600088F8005040334EF83420E7E69DF80430EF
:102E700033700204029B0D7042F0C80203444EF806
:102E80003C20D8E69DF804101970029B774A88F818
:102E90000050403840334EF83420CFE619F0080F88
:102EA0000CBF022303238B5558E4714A0F21117084
:102EB00060E6704A5468002CBBD06888B5F804E01E
:102EC00003E00C325468002CB3D013888342F8D14D
:102ED00053887345F5D1000A03280CBF94F800E02D
:102EE000B2F808E003E0644A644C12782270E88883
:102EF000704580F03F8162490D784028844645F056
:102F0000020E28BF4FF0400C04EB0C0309EBCE027D
:102F1000029301235460CCEB00004FEA0C480022DE
:102F20000193C8245EE6554C4FF0020E2270627089
:102F3000DDE7B1F5A06F7FF47CAF012300220193A0
:102F40003DE642F221329142F7D072E76A88002AC8
:102F50007FF46FAF3A48CDF804E089000844017867
:102F600021F0020101702AE600F098F9002800F033
:102F7000EF8008303D4AC4F88400C4F8802000F097
:102F80008DF9002800F0DE800830374AC9F88C003F
:102F9000C9F8882038E700F081F9002800F0C080E7
:102FA0000830324AC8F84400C8F8402000F076F9EA
:102FB000002800F0AF8008302B4AC9F84C00C9F84F
:102FC000482008E700F06AF9002800F0CD800830BA
:102FD000264AC9F82400C9F8202000F05FF900282B
:102FE00000F0BC800830204AC9F82C00C9F828201D
:102FF000E3E600F053F9002800F09E8008301B4AF9
:10300000C8F86400C8F8602000F048F9002800F013
:103010008D800830144AC9F86C00C9F86820E7E6CA
:10302000C86B083800F05AF904E5486B083800F01E
:1030300055F9F9E4C86A083800F050F9EEE400BF29
:10304000C0200740802007404C600000C42007409B
:103050009992FF1FC8200740CC200740D02007408E
:103060000080FF1F94200740C800400088004000F7
:103070002D92FF1F50600000A492FF1F9C92FF1F23
:103080009892FF1F606A083800F028F9C0E4C86F02
:10309000083800F023F9FDE4486F083800F01EF905
:1030A000F2E4C86E083800F019F9E7E4486E083811
:1030B00000F014F9DCE4C86D083800F00FF9D1E431
:1030C000486D083800F00AF9C6E4C86C083800F00A
:1030D00005F9BBE4486C083800F000F9B0E4D1F819
:1030E0009C00083800F0FAF8ECE4D1F894000838B5
:1030F00000F0F4F8E0E4D1F88C00083800F0EEF8C5
:10310000D4E4D1F88400083800F0E8F8C8E44FF0BF
:10311000020EECE62A78C9F8480001322A705AE615
:103120002A78C8F8400001322A703FE72A78C9F8A7
:10313000680001322A705BE62A78C8F86000013224
:103140002A7061E72A78C9F8880001322A705BE6A4
:103150002A78C4F8800001322A7010E72A78C9F86A
:10316000280001322A7028E62A78C9F820000132A6
:103170002A7032E7BEF1400FF44628BF4FF0400CF2
:1031800004EB0C0302930123CCEB0E004FEA0C4836
:103190000022019318E500BFF8B500F07FFC294B31
:1031A00029482A4C2A4F2B4DDFF8BCC0DFF8BCE081
:1031B000294E00221A605A609A60DA601A615A61D8
:1031C0009A61DA611A625A629A62DA621A635A631F
:1031D0009A63DA631A645A649A64DA641A655A65FF
:1031E0009A65DA651A665A669A66DA661A675A67DF
:1031F0009A67DA67C3F880200168C3F8842041F435
:1032000080210160C3F307212170C3F307401349F4
:1032100038701B0E2B70FF238CF80030104D8EF889
:10322000003010480B700123337084F8642070263E
:103230004FF40074102207F82C3C2E70046081F8C3
:10324000F820F8BD0080FF1F348004409C20074018
:10325000B0200740B42007409420074010200740CA
:1032600049E400E008E100E08020074088200740B2
:1032700000F0A4B800F07CB800F056B800F090B8A8
:1032800000F06CB900F046B90846114600F0B2B83B
:10329000084600F033B900BF704700BF72B60D4852
:1032A0000268B2FA82F30B2B10DC4FF00041D940D8
:1032B00022EA0102026062B6074803EBC303DB00A7
:1032C000C2180021C15010465160704762B60020FC
:1032D000704700BF4887FF1FBC83FF1F0D4B0E4A7E
:1032E000C31AA2FB03231B090B2B0CD80B4A127821
:1032F00052B972B60A484FF00041026821FA03F34E
:103300001A43026062B67047064A1278002AF0D06B
:10331000FFF734B9BC83FF1F398EE3389992FF1F42
:103320004887FF1FA492FF1F38B50F4D286878B15A
:1033300043880288C118013393420C7A02D2438039
:10334000204638BDFFF7CAFF002320462B6038BD5A
:10335000064B1B782BB10320FFF7DCF82860002810
:10336000E6D14FF0FF3038BDB892FF1FA492FF1F87
:1033700010B5094C206818B143881844007A10BD74
:10338000064B1B782BB10320FFF7C4F82060002800
:10339000F2D14FF0FF3010BDB892FF1FA492FF1F73
:1033A000044B054A1B6890881BB11A885B88D31AA6
:1033B00018447047B892FF1F9093FF1F0B4B1B7868
:1033C0009BB110B50A4C206848B1FFF787FF002376
:1033D00003202360FFF79EF830B1FFF77FFF032043
:1033E000FFF798F80028F8D110BD7047A492FF1F8E
:1033F000B892FF1F2DE9F04FDFF8F89083B001225B
:1034000089F80020019169B3DFF8EC80364F019E06
:103410008346D8F80000B0B3344D4488C4F140016D
:10342000B14228BF314604EB010E00221FFA8EFE86
:103430002A70761AA0F802E000F1080251B1013CAE
:10344000224459441BF8014B02F8014F8B45F9D136
:10345000B0F802E0BEF13F0F0BD8254A05211170EC
:10346000002ED6D10198002389F8003003B0BDE8C2
:10347000F08F4022028001460420FFF7E3F800228B
:10348000C8F80020E9E73A782AB3184D4AF2F9243F
:103490004FF0010A07E0013C16D02A78A2B900F0EB
:1034A000ADF83A78BAB10420FFF752F80728F2D8FD
:1034B00089F800A0FFF7F2FEC8F800000028ACD1A0
:1034C0000C4B013C1870E8D101234FF0FF302B70FA
:1034D00003B0BDE8F08F00234FF0FF3089F80030D3
:1034E00003B0BDE8F08F00BFA492FF1FB492FF1F8E
:1034F000AC92FF1FAD92FF1FB092FF1F00B583B0CB
:1035000002AB012103F8010D1846FFF773FF03B06A
:103510005DF804FB38B50E4D0E4C2868012323706E
:1035200028B1408800232370C0F1400038BD0A4B09
:103530001B7813B90020207038BD0420FFF708F86D
:103540000728F7D8FFF7AAFE28600028E9D1F1E79D
:10355000B092FF1FAD92FF1FA492FF1FF8B5114B51
:103560001B788BB1104E114D346801272F7064B158
:103570000F4A638800271770214623800420FFF735
:1035800061F8376000232B70F8BDFFF787FE084B0A
:1035900028B1014604201C70FFF754F8F2E71F70B1
:1035A000F0E700BFA492FF1FB092FF1FAD92FF1F74
:1035B000AC92FF1F38B50E4B1B7873B90D4C2168C8
:1035C00061B103F0FF054B880B800420FFF73AF848
:1035D000256038BD084B01221A7038BDFFF75EFE2A
:1035E0000028F7D00146BDE838400420FFF72AB88C
:1035F000AD92FF1FB092FF1FAC92FF1F38B5224C57
:10360000237803B138BD01232370FFF7C9FE70BBD7
:10361000FEF70EFC40BB00F0ABF910BBFEF7A0FEBE
:10362000E0B900232370EFF30583002BEAD1EFF319
:10363000108172B6154B1868E0B1154C2278CAB9E2
:1036400045691D6001232370C5B1AA6101B962B645
:1036500000254577836898472570D3E7FDF766FF17
:10366000DFE700F013F9D9E700F00EF9D3E7FFF731
:1036700013FECDE70029C5D162B638BD054B1D60EC
:103680000029E5D1E3E700BFBD92FF1FD092FF1FE5
:10369000D492FF1FCC92FF1F10B4EFF3108272B6CA
:1036A000437F33B9017F012907D003290FD00123BC
:1036B000437702B962B610BC7047124C2168A1B1C1
:1036C000114943610B68836108605861EFE70F4C53
:1036D000216881B10E4943610B68836108605861BC
:1036E0000C4B4FF080511960E1E7074B416181615C
:1036F00020601860DBE7064B416181612060186043
:10370000EEE700BFD092FF1FCC92FF1FC092FF1FB9
:10371000C492FF1F04ED00E010B4047F4160022C4E
:10372000C26002D010BCFFF7B7BF836810BC184757
:1037300070B5EFF3108272B60C4C206880B10C4E5D
:1037400000254369236073B19D6102B962B6457774
:1037500083689847EFF3108272B620680028F0D192
:1037600002B962B670BD3360EFE700BFC092FF1FC1
:10377000C492FF1FFFF7DCBF184A30B41468002C56
:1037800027D0036821688B420ED2CB1A00218460B7
:10379000C1602360E06010600223037530BC704795
:1037A00011688B42144608D3A2685B1A0360002A92
:1037B000F6D18260C460A060EEE7D268C260846027
:1037C000E060C568CB1A0222A8602360027530BC95
:1037D00070478460C4601060DEE700BFC892FF1FBE
:1037E000F8B5224E34682CB32368002B3AD1204F11
:1037F0001D4604E03468ECB12368002B32D1A36885
:1038000003B1DD6020693360036825751B68BB4226
:1038100021D1037F4560022BC46020D0FFF73CFF1D
:103820006368002BE6D023602046FFF7A5FF3468CD
:10383000002CE1D1EFF3108372B60E4A002110681C
:10384000116003B962B628B18468FFF795FF20467E
:103850000028F9D1F8BD224600219847E0E78368A7
:103860009847DDE7013B2360E4E700BFC892FF1FF4
:1038700019370000D892FF1F024A13680133136002
:10388000FFF7AEBFAC90FF1F704700BF704700BF8F
:1038900030B42948294A2A4B2A4D6024E12104707A
:1038A00011701B78284C082B30D00A2B2748284948
:1038B00037D00C2B0CBF35223D2212232A60236007
:1038C00002600B60234B24491B78244ABBB10123BF
:1038D0000B601360224B23491B78234A012B26D906
:1038E000042B0FD9082B1ED9102B94BF86238723B6
:1038F0000B6013601D4B01221A7030BC70470B60C7
:103900001360E7E784230B601360F3E700F58E2074
:103910000F490830012213232A60236002600B60E4
:10392000D0E73922F7E785230B601360E2E78023B5
:103930000B601360DEE700BF004007400140074016
:103940004C87FF1F08B003400CB0034008B00B4089
:103950000CB00B40DD92FF1F20B0034020B00B40A5
:103960004D87FF1F24B0034024B00B40DC92FF1FA3
:10397000054A064B10781B78C0B2DBB2984238BFBC
:103980004030C01A704700BF5093FF1FE592FF1FE1
:10399000F0B4384B1A7912F0300F2CD072B6997DF2
:1039A00001F0FF0200293DD062B6334F3349387829
:1039B0000D78334E1C46C0B2EDB2431C402BE1796A
:1039C00028BF0023AB4202F1FF32C9B21CBFF15441
:1039D000184612F0FF02F0D12A4B1B68C2B23A70AF
:1039E0004BB1A84236BFC5F14005401B40192728FE
:1039F000C4BF01221A701F49CA78D2B2150616D464
:103A000052060DD51B4B1B795B0609D51E4B1F4972
:103A10001B6800220A7003B11A70164B3C22DA7040
:103A2000F0BC70474022D9795A7462B6E3E70B794B
:103A30001C06E5D5164B174E1C783378E4B2DBB282
:103A40009C420ED0144D01E0A3420AD00133282B32
:103A500028BF00230879E85CC0B2C871087D072838
:103A6000F2D9DBB2034933700B79180644BF7C23CB
:103A7000CB70C5E700B006405093FF1FE592FF1FD3
:103A80001093FF1FE092FF1F5493FF1FE492FF1F4C
:103A90005893FF1F5193FF1FE892FF1F70B584B02A
:103AA00072B6194B194D1A48702241260F248021F5
:103AB0001A702E701A460470197013781B06FCD504
:103AC000144B186862B6144B144C984298BF00EB24
:103AD000800001A998BF40000A22FDF769FF01A9F3
:103AE0002046002311F8012B01333AB10A2B20F8AC
:103AF000022FF7D11623237004B070BD5B00DBB238
:103B0000237004B070BD00BF0000024007000240F7
:103B100006000240080002407F969800DC87FF1FE5
:103B200081F0004102E000BF83F0004330B54FEA6E
:103B300041044FEA430594EA050F08BF90EA020FDB
:103B40001FBF54EA000C55EA020C7FEA645C7FEA6E
:103B5000655C00F0E2804FEA5454D4EB5555B8BF91
:103B60006D420CDD2C4480EA020281EA030382EA02
:103B7000000083EA010180EA020281EA0303362D94
:103B800088BF30BD11F0004F4FEA01314FF4801C67
:103B90004CEA113102D0404261EB410113F0004F79
:103BA0004FEA03334CEA133302D0524263EB430330
:103BB00094EA050F00F0A780A4F10104D5F1200ECE
:103BC0000DDB02FA0EFC22FA05F2801841F1000129
:103BD00003FA0EF2801843FA05F359410EE0A5F1FD
:103BE00020050EF1200E012A03FA0EFC28BF4CF02E
:103BF000020C43FA05F3C01851EBE37101F00045E4
:103C000007D54FF0000EDCF1000C7EEB00006EEBF0
:103C10000101B1F5801F1BD3B1F5001F0CD349087A
:103C20005FEA30004FEA3C0C04F101044FEA4452D1
:103C300012F5800F80F09A80BCF1004F08BF5FEA58
:103C4000500C50F1000041EB045141EA050130BD38
:103C50005FEA4C0C404141EB010111F4801FA4F1DB
:103C60000104E9D191F0000F04BF01460020B1FA30
:103C700081F308BF2033A3F10B03B3F120020CDA68
:103C80000C3208DD02F1140CC2F10C0201FA0CF046
:103C900021FA02F10CE002F11402D8BFC2F1200CAB
:103CA00001FA02F120FA0CFCDCBF41EA0C01904061
:103CB000E41AA2BF01EB0451294330BD6FEA0404AA
:103CC0001F3C1CDA0C340EDC04F11404C4F1200295
:103CD00020FA04F001FA02F340EA030021FA04F3A7
:103CE00045EA030130BDC4F10C04C4F1200220FAFE
:103CF00002F001FA04F340EA0300294630BD21FA3C
:103D000004F0294630BD94F0000F83F4801306BF01
:103D100081F480110134013D4EE77FEA645C18BFF5
:103D20007FEA655C29D094EA050F08BF90EA020F8C
:103D300005D054EA000C04BF1946104630BD91EA84
:103D4000030F1EBF0021002030BD5FEA545C05D187
:103D50004000494128BF41F0004130BD14F58004C6
:103D60003CBF01F5801130BD01F0004545F0FE413A
:103D700041F470014FF0000030BD7FEA645C1ABF6F
:103D8000194610467FEA655C1CBF0B46024650EAA6
:103D9000013406BF52EA033591EA030F41F40021D2
:103DA00030BD00BF90F0000F04BF0021704730B558
:103DB0004FF4806404F132044FF000054FF000012D
:103DC00050E700BF90F0000F04BF0021704730B5EE
:103DD0004FF4806404F1320410F0004548BF4042C3
:103DE0004FF000013EE700BF42004FEAE2014FEA18
:103DF00031014FEA02701FBF12F07F4393F07F4FF3
:103E000081F06051704792F0000F14BF93F07F4F24
:103E1000704730B54FF4607401F0004521F0004167
:103E200020E700BF50EA010208BF704730B54FF0ED
:103E300000050AE050EA010208BF704730B511F0F2
:103E4000004502D5404261EB41014FF4806404F12A
:103E500032045FEA915C3FF4DCAE4FF003025FEAAC
:103E6000DC0C18BF03325FEADC0C18BF033202EB34
:103E7000DC02C2F1200300FA03FC20FA02F001FA8E
:103E800003FE40EA0E0021FA02F11444C1E600BF2D
:103E900070B54FF0FF0C4CF4E06C1CEA11541DBFE0
:103EA0001CEA135594EA0C0F95EA0C0F00F0DEF8AB
:103EB0002C4481EA030621EA4C5123EA4C5350EA90
:103EC000013518BF52EA033541F4801143F48013E1
:103ED00038D0A0FB02CE4FF00005E1FB02E506F072
:103EE0000042E0FB03E54FF00006E1FB03569CF0C7
:103EF000000F18BF4EF0010EA4F1FF04B6F5007FCD
:103F000064F5407404D25FEA4E0E6D4146EB06063E
:103F100042EAC62141EA55514FEAC52040EA5E50C7
:103F20004FEACE2EB4F1FD0C88BFBCF5E06F1ED871
:103F3000BEF1004F08BF5FEA500E50F1000041EBA8
:103F4000045170BD06F0004646EA010140EA020055
:103F500081EA0301B4EB5C04C2BFD4EB0C0541EA77
:103F6000045170BD41F480114FF0000E013C00F38C
:103F7000AB8014F1360FDEBF002001F0004170BDB0
:103F8000C4F10004203C35DA0C341BDC04F11404C9
:103F9000C4F1200500FA05F320FA04F001FA05F255
:103FA00040EA020001F0004221F0004110EBD37022
:103FB00021FA04F642EB06015EEA430E08BF20EA4E
:103FC000D37070BDC4F10C04C4F1200500FA04F3F1
:103FD00020FA05F001FA04F240EA020001F0004183
:103FE00010EBD37041F100015EEA430E08BF20EAF6
:103FF000D37070BDC4F1200500FA05F24EEA020E3E
:1040000020FA04F301FA05F243EA020321FA04F06C
:1040100001F0004121FA04F220EA020000EBD37023
:104020005EEA430E08BF20EAD37070BD94F0000F23
:104030000FD101F00046400041EB010111F4801F57
:1040400008BF013CF7D041EA060195F0000F18BF08
:10405000704703F00046520043EB030313F4801F44
:1040600008BF013DF7D043EA0603704794EA0C0FFE
:104070000CEA135518BF95EA0C0F0CD050EA410614
:1040800018BF52EA4306D1D181EA030101F0004191
:104090004FF0000070BD50EA410606BF10461946B9
:1040A00052EA430619D094EA0C0F02D150EA0136C5
:1040B00013D195EA0C0F05D152EA03361CBF104606
:1040C00019460AD181EA030101F0004141F0FE41A5
:1040D00041F470014FF0000070BD41F0FE4141F429
:1040E000780170BD70B54FF0FF0C4CF4E06C1CEA29
:1040F00011541DBF1CEA135594EA0C0F95EA0C0FDE
:1041000000F0A7F8A4EB050481EA030E52EA033598
:104110004FEA013100F088804FEA03334FF08055B9
:1041200045EA131343EA12634FEA022245EA1115E6
:1041300045EA10654FEA00260EF000419D4208BF97
:10414000964244F1FD0404F5407402D25B084FEA44
:104150003202B61A65EB03055B084FEA32024FF4F0
:1041600080104FF4002CB6EB020E75EB030E22BF4D
:10417000B61A754640EA0C005B084FEA3202B6EB0D
:10418000020E75EB030E22BFB61A754640EA5C00BC
:104190005B084FEA3202B6EB020E75EB030E22BF4C
:1041A000B61A754640EA9C005B084FEA3202B6EB4D
:1041B000020E75EB030E22BFB61A754640EADC000C
:1041C00055EA060E18D04FEA051545EA16754FEA6E
:1041D00006164FEAC30343EA52734FEAC2025FEA8C
:1041E0001C1CC0D111F4801F0BD141EA00014FF01B
:1041F00000004FF0004CB6E711F4801F04BF0143EC
:104200000020B4F1FD0C88BFBCF5E06F3FF6AFAE07
:10421000B5EB030C04BFB6EB020C5FEA500C50F197
:10422000000041EB045170BD0EF0004E4EEA11311A
:1042300014EB5C04C2BFD4EB0C0541EA045170BD21
:1042400041F480114FF0000E013C90E645EA060E65
:104250008DE60CEA135594EA0C0F08BF95EA0C0F93
:104260003FF43BAF94EA0C0F0AD150EA01347FF4DB
:1042700034AF95EA0C0F7FF425AF104619462CE7B2
:1042800095EA0C0F06D152EA03353FF4FDAE104615
:10429000194622E750EA410618BF52EA43067FF466
:1042A000C5AE50EA41047FF40DAF52EA43057FF4F6
:1042B000EBAE12E74FF0FF3C06E000BF4FF0010C01
:1042C00002E000BF4FF0010C4DF804CD4FEA410C65
:1042D0007FEA6C5C4FEA430C18BF7FEA6C5C1BD032
:1042E00001B050EA410C0CBF52EA430C91EA030FB3
:1042F00002BF90EA020F0020704710F1000F91EA10
:10430000030F58BF994208BF90422CBFD8176FEADD
:10431000E37040F0010070474FEA410C7FEA6C5CAB
:1043200002D150EA013C07D14FEA430C7FEA6C5CB2
:10433000D6D152EA033CD3D05DF8040B704700BFDE
:104340008446104662468C461946634600E000BF2C
:1043500001B5FFF7B7FF002848BF10F1000F01BDFE
:104360004DF808EDFFF7F4FF0CBF012000205DF8C9
:1043700008FB00BF4DF808EDFFF7EAFF34BF01204E
:1043800000205DF808FB00BF4DF808EDFFF7E0FFE7
:1043900094BF012000205DF808FB00BF4DF808ED38
:1043A000FFF7CEFF94BF012000205DF808FB00BF9F
:1043B0004DF808EDFFF7C4FF34BF012000205DF881
:1043C00008FB00BF4FEA410C7FEA6C5C02D150EA67
:1043D000013C0AD14FEA430C7FEA6C5C02D152EAFD
:1043E000033C02D14FF0000070474FF001007047CE
:1043F0004A0011D212F5001211D20DD56FF4787364
:10440000B3EB62520ED44FEAC12343F0004343EAB8
:10441000505323FA02F070474FF00000704750EA03
:10442000013002D14FF0FF3070474FF0000070476D
:1044300080F0004002E000BF81F0004142001FBF59
:104440005FEA410392EA030F7FEA226C7FEA236C62
:104450006AD04FEA1262D2EB1363C1BFD218414057
:1044600048404140B8BF5B42192B88BF704710F0ED
:10447000004F40F4000020F07F4018BF404211F090
:10448000004F41F4000121F07F4118BF494292EAF8
:10449000030F3FD0A2F1010241FA03FC10EB0C0024
:1044A000C3F1200301FA03F100F0004302D54942B1
:1044B00060EB4000B0F5000F13D3B0F1807F06D35E
:1044C00040084FEA310102F10102FE2A51D2B1F156
:1044D000004F40EBC25008BF20F0010040EA03004B
:1044E0007047490040EB000010F4000FA2F10102F8
:1044F000EDD1B0FA80FCACF1080CB2EB0C0200FA82
:104500000CF0AABF00EBC25052421843BCBFD040CF
:104510001843704792F0000F81F4000106BF80F449
:1045200000000132013BB5E74FEA41037FEA226C0C
:1045300018BF7FEA236C21D092EA030F04D092F0D7
:10454000000F08BF0846704790EA010F1CBF00200B
:10455000704712F07F4F04D1400028BF40F0004068
:10456000704712F100723CBF00F50000704700F088
:10457000004343F0FE4040F4000070477FEA2262AF
:1045800016BF08467FEA23630146420206BF5FEA80
:10459000412390EA010F40F4800070474FF0000380
:1045A00004E000BF10F0004348BF40425FEA000C47
:1045B00008BF704743F0964301464FF000001CE0EF
:1045C00050EA010208BF70474FF000030AE000BF45
:1045D00050EA010208BF704711F0004302D5404283
:1045E00061EB41015FEA010C02BF844601460020F5
:1045F00043F0B64308BFA3F18053A3F50003BCFA10
:104600008CF2083AA3EBC25310DB01FA02FC6344BC
:1046100000FA02FCC2F12002BCF1004F20FA02F2C3
:1046200043EB020008BF20F00100704702F12002B6
:1046300001FA02FCC2F1200250EA4C0021FA02F217
:1046400043EB020008BF20EADC7070474FF0FF0C1C
:104650001CEAD0521EBF1CEAD15392EA0C0F93EA17
:104660000C0F6FD01A4480EA010C400218BF5FEAB9
:1046700041211ED04FF0006343EA501043EA51112C
:10468000A0FB01310CF00040B1F5000F3EBF490026
:1046900041EAD3715B0040EA010062F17F02FD2A2A
:1046A0001DD8B3F1004F40EBC25008BF20F001000D
:1046B000704790F0000F0CF0004C08BF49024CEA24
:1046C000502040EA51207F3AC2BFD2F1FF0340EAB6
:1046D000C250704740F400004FF00003013A5DDC27
:1046E00012F1190FDCBF00F000407047C2F1000268
:1046F000410021FA02F1C2F1200200FA02FC5FEA55
:10470000310040F1000053EA4C0308BF20EADC709E
:10471000704792F0000F00F0004C02BF400010F410
:10472000000F013AF9D040EA0C0093F0000F01F0BD
:10473000004C02BF490011F4000F013BF9D041EADF
:104740000C018FE70CEAD15392EA0C0F18BF93EAE1
:104750000C0F0AD030F0004C18BF31F0004CD8D10B
:1047600080EA010000F00040704790F0000F17BF92
:1047700090F0004F084691F0000F91F0004F14D0D8
:1047800092EA0C0F01D142020FD193EA0C0F03D130
:104790004B0218BF084608D180EA010000F0004033
:1047A00040F0FE4040F40000704740F0FE4040F40E
:1047B000400070474FF0FF0C1CEAD0521EBF1CEAAD
:1047C000D15392EA0C0F93EA0C0F69D0A2EB0302CB
:1047D00080EA010C49024FEA402037D04FF0805365
:1047E00043EA111143EA10130CF000408B4238BF2A
:1047F0005B0042F17D024FF4000C8B4224BF5B1A38
:1048000040EA0C00B3EB510F24BFA3EB510340EA85
:104810005C00B3EB910F24BFA3EB910340EA9C0033
:10482000B3EBD10F24BFA3EBD10340EADC001B01A3
:1048300018BF5FEA1C1CE0D1FD2A3FF650AF8B4247
:1048400040EBC25008BF20F0010070470CF0004C54
:104850004CEA50207F32C2BFD2F1FF0340EAC2507F
:10486000704740F400004FF00003013A37E792F040
:10487000000F00F0004C02BF400010F4000F013A9E
:10488000F9D040EA0C0093F0000F01F0004C02BF99
:10489000490011F4000F013BF9D041EA0C0195E702
:1048A0000CEAD15392EA0C0F08D142027FF47DAF9B
:1048B00093EA0C0F7FF470AF084676E793EA0C0F8B
:1048C00004D14B023FF44CAF08466EE730F0004C89
:1048D00018BF31F0004CCAD130F000427FF45CAF19
:1048E00031F000437FF43CAF5FE700BF4FF0FF3C87
:1048F00006E000BF4FF0010C02E000BF4FF0010CDA
:104900004DF804CD4FEA40024FEA41037FEA226CA2
:1049100018BF7FEA236C11D001B052EA530C18BFC4
:1049200090EA010F58BFB2EB030088BFC81738BF29
:104930006FEAE17018BF40F0010070477FEA226C17
:1049400002D15FEA402C05D17FEA236CE4D15FEA13
:10495000412CE1D05DF8040B704700BF8446084647
:104960006146FFE70FB5FFF7C9FF002848BF10F108
:10497000000F0FBD4DF808EDFFF7F4FF0CBF01204D
:1049800000205DF808FB00BF4DF808EDFFF7EAFFD7
:1049900034BF012000205DF808FB00BF4DF808ED92
:1049A000FFF7E0FF94BF012000205DF808FB00BF87
:1049B0004DF808EDFFF7D2FF94BF012000205DF80D
:1049C00008FB00BF4DF808EDFFF7C8FF34BF01201A
:1049D00000205DF808FB00BF4FEA4002B2F1FE4F35
:1049E0000FD34FF09E03B3EB12620DD94FEA0023B1
:1049F00043F0004310F0004F23FA02F018BF40428A
:104A000070474FF00000704712F1610F01D1420270
:104A100005D110F0004008BF6FF0004070474FF024
:104A200000007047014B1868704700BF208CFF1FC3
:104A300070B50F4E0F4D761BB61018BF002405D071
:104A4000013455F8043B9847A642F9D10A4E0B4D64
:104A5000761B01F029FBB61018BF002406D00134E4
:104A600055F8043B9847A642F9D170BD70BD00BF10
:104A7000B4600000B4600000C0600000B4600000DA
:104A8000024B0146186800F00BB800BF208CFF1FD6
:104A9000024B0146186800F0A7BE00BF208CFF1F24
:104AA0002DE9F04F01F10B05162D83B0064640F2BB
:104AB0009F8035F0070500F1BF80A94200F2BC805D
:104AC00000F00AFBB5F5FC7FC0F09C826B0A00F099
:104AD000BA80042B00F28381A80900F1390E4FEA55
:104AE0004E033830C44F07EB8303A3F108015C6821
:104AF000A14207D1ACE0002A80F2AC80E468A14278
:104B000000F0A680636823F003035A1B0F2AF2DD2E
:104B1000B9493C6901F1080E744500F0B38163683E
:104B200023F003035A1B0F2A00F39981002AC1F8CE
:104B300014E0C1F810E080F29E80B3F5007F80F0B1
:104B40006781DB0803F1010C01229B1002FA03F3D9
:104B50004A6851F83C80C4F8088001EBCC091A433C
:104B6000A9F10803E3604A6041F83C40C8F80C40F2
:104B7000831001249C40944200F28A80144206D1A2
:104B800020F003006400144200F10400FAD007EBA7
:104B9000C009CC468046DCF80C108C4507D173E187
:104BA000002A80F28181C9688C4500F06D814B68D4
:104BB00023F003035A1B0F2AF2DD0C46D1F80CC078
:104BC00054F8088F4B1945F001054D6042F0010182
:104BD000C8F80CC03046CCF808807B613B61C3F854
:104BE0000CE0C3F808E059609A5000F077FA1FE033
:104BF000102921D800F070FA1025062302207E4FDC
:104C000007EB8303A3F108025C68944200F045813E
:104C10006368E168A56823F00303234430465A68BB
:104C2000E96042F001028D605A6000F057FA0834E2
:104C3000204603B0BDE8F08F00240C2320463360EB
:104C400003B0BDE8F08F80234FF0400E3F2049E7CE
:104C500070465DE72344E1685A68A56842F00102A6
:104C6000E96030468D605A6000F038FA083420461A
:104C700003B0BDE8F08F234430465A6842F0010289
:104C80005A6000F02BFA0834204603B0BDE8F08FDC
:104C9000BC68636823F00308A84504D3C5EB080388
:104CA0000F2B00F38C80554BDFF860911A68D9F810
:104CB000003001332A4404EB080A00F0608102F559
:104CC00080520F3222F47F6222F00F0211463046EA
:104CD000019200F0FDFBB0F1FF3F8346019A00F026
:104CE0005881824500F2FC80454B1968DA45114431
:104CF000196000F05381D9F80000DFF810E10130AD
:104D00001BBFCAEB0B0A5144CEF800B019601BF070
:104D1000070100F01781C1F10800C1F580518344FB
:104D200008315A44C2F30B02C2EB0109494630462E
:104D3000019300F0CDFB431C019B00F03F81CBEBC6
:104D400000024A4442F001021968C7F808B0494419
:104D5000BC42CBF804201960DFF8A49016D0B8F15B
:104D60000F0F40F2FD806268A8F10C0323F00703E7
:104D7000E01802F001024FF0050E1A430F2B62609B
:104D8000C0F804E0C0F808E000F21C811D4BBC68CC
:104D90001A68914288BF19601B4B1A689142626879
:104DA00088BF196022F003029542A2EB050301D8E7
:104DB0000F2B04DC304600F091F9002438E762192B
:104DC00043F0010345F0010565603046BA60536069
:104DD00000F084F90834204603B0BDE8F08F142BAE
:104DE00071D9542B00F2A480280B00F16F0E4FEA0A
:104DF0004E036E3076E600BF248CFF1F6493FF1FC6
:104E00006893FF1F6093FF1F5C93FF1F3090FF1F8D
:104E10005A0A042A5ED9142A00F2B38002F15C0116
:104E200049005B3207EB810C57F82110DFF8DC8179
:104E3000ACF1080C8C4500F088804A6822F003022F
:104E4000934202D289688C45F7D1D1F80CC07A68B8
:104E5000C4F80CC0A160CCF80840CC6088E66319A7
:104E600042F0010745F00105656030464B610B617A
:104E7000C3F80CE0C3F808E05F609A50083400F013
:104E80002DF9D5E64A6873E608F1010818F0030F1A
:104E90000CF1080C7FF47FAE30E0DC68A34208BF61
:104EA00002303FF435AEB3E60B440C465A68C9688D
:104EB00054F8085F42F001025A603046E9608D60A4
:104EC00000F00CF9B4E603F15C0E03F15B004FEA6D
:104ED0004E0307E69A0902F1390149003832A1E789
:104EE000BC424A4B3FF400AF9C68626822F0030268
:104EF0005AE759F80839994540F0828010F0030FBD
:104F000000F1FF30F5D17B6823EA04037B60640085
:104F10009C423FF6BDAE002C3FF4BAAE1C42404668
:104F20007FF435AE64001C4200F10400FAD02EE696
:104F3000B3F5AA7F18D8E80B00F1780E4FEA4E03BC
:104F40007730CFE54FF48051EBE60121D8F80430FB
:104F5000921001FA02F21A43C8F80420614677E77A
:104F60000123CBF8043025E740F25452934220D875
:104F7000A80C00F17D0E4FEA4E037C30B2E51032F2
:104F8000A4E6542A26D81A0B02F16F0149006E32AA
:104F900048E7BC68626822F0030205E7CAF30B0029
:104FA00000287FF4A8AE4244BB6842F001025A6078
:104FB000ECE6FE234FF07F0E7E2093E501224FF0BA
:104FC0000009C1E604F10801304600F00DFCD9F8F3
:104FD0000010DBE6B2F5AA7F05D8DA0B02F1780102
:104FE000490077321EE740F254518A4205D89A0CA4
:104FF00002F17D0149007C3214E7FE217E2211E797
:105000007B6884E7E808431C5B00F8E5248CFF1FFD
:105010008842F0B50DD98B1898420AD28118002A1F
:1050200051D09A1A13F8014D01F8014D9342F9D16C
:10503000F0BD0F2A48D941EA00039B0746D100F191
:10504000100401F11003154653F8106C44F8106C6D
:1050500053F80C6C44F80C6C53F8086C44F8086C6A
:10506000103D53F8046C44F8046C0F2D03F1100349
:1050700004F11004E8D8A2F1100323F00F0302F0AA
:105080000F0E1033BEF1030F1944034421D91E1F24
:105090000D467446043C55F8047B46F8047F032C07
:1050A000F8D8AEF1040424F003040434234421446A
:1050B00002F0030262B1013B0A4411F8014B03F80C
:1050C000014F8A42F9D1F0BD0346F3E70346F2E708
:1050D000F0BD7246EEE700BF704700BF704700BFEB
:1050E000024B0A460146186800F002B8208CFF1FE8
:1050F0002DE9F04F174683B0002900F0C1800E461D
:10510000814607F10B05FFF7E7FF56F804EC162D73
:105110002EF00304A6F1080840D810221546AF422D
:1051200041D8944275DAC94B996808EB040088426B
:10513000416800F0D98021F0010303445B68DB077C
:105140007DD51EF0010F35D039464846FFF7A8FC43
:105150000746E0B156F8043C23F001034344A0F1B4
:1051600008029A4200F04481221F242A00F2318171
:10517000132A00F20481034632461168196051680F
:10518000596092689A603146484600F02DFB4846C7
:10519000FFF7A4FF384603B0BDE8F08F25F0070500
:1051A000002D2A46BBDA0C230020C9F8003003B0DA
:1051B000BDE8F08F56F8083CC3EB080ADAF8043073
:1051C00023F0030C04EB0C039342BDDB5746DAF8E3
:1051D0000C1057F8080F221F242AC160886000F2C3
:1051E0001781132A40F212813168CAF808107168D9
:1051F000CAF80C101B2A00F22B8108360AF11002A3
:105200003168116071685160B16891603E461C461A
:10521000D046631B0F2B1DD8D8F8043003F00103D0
:1052200023434444C8F80430636843F001036360D7
:105230004846FFF753FF304603B0BDE8F08F21F03A
:1052400003012144914221DBC36882680C46D3608C
:105250009A60DEE7D8F8042008EB050102F00102AD
:10526000154343F001020B44C8F804504A605A68E1
:1052700042F0010208315A60484600F0B5FAD7E71B
:10528000114603B0BDE8F04FFFF70ABC1EF0010F56
:105290007FF45AAF56F8083CC3EB080ADAF804303A
:1052A00023F0030C01EB0C0E96458BDBC368826880
:1052B0005746D3609A6057F8081FDAF80C30CB6075
:1052C000221F242A996000F29980132A62D9336838
:1052D000CAF808307368CAF80C301B2A00F2A080A4
:1052E00008360AF1100356E021F0030BA34405F140
:1052F0001000834559DA1EF0010F7FF425AF56F8F0
:10530000081CC1EB080ADAF8041021F0030CE3448E
:1053100058453FF757AF5746DAF80C1057F8080FC3
:10532000221F242AC160886000F2B480132A40F250
:10533000A5803168CAF808107168CAF80C101B2AD9
:1053400000F2AF8008360AF110023168116071680E
:105350005160B16891600AEB0501C5EB0B0242F0A8
:10536000010299604A60DAF8043003F001031D433A
:105370004846CAF80450FFF7B1FE38465CE7336888
:105380000360736843601B2A27D800F1080306F105
:105390000802F2E63B4632681A6072685A60B268E8
:1053A0009A603E467446D04633E708EB0501C5EBEC
:1053B0000B0B4BF0010299604A6056F8043C03F075
:1053C00001031D43484646F8045CFFF787FE30465C
:1053D00032E73146FFF71CFED5E6B3688360F36819
:1053E000C360242A28D000F1100306F11002C4E69D
:1053F00050F8043C23F003031C440AE731463846C6
:105400007446D046FFF704FE3E4602E73A46F7E60A
:10541000314638461C46D046FFF7FAFD3E46F8E6D0
:10542000B368CAF81030F368CAF81430242A1BD0C5
:1054300010360AF11803AEE73369036173694361FB
:1054400006F1180200F1180397E600BF248CFF1F35
:10545000B168CAF81010F168CAF81410242A0FD0E5
:1054600010360AF11802CBE63369CAF818307369AE
:10547000CAF81C3018360AF120038CE73A4664E774
:105480003269CAF818207269CAF81C2018360AF165
:105490002002B5E6314638460193FFF7B9FD019B7E
:1054A00059E7B168CAF81010F168CAF81410242A34
:1054B00003D010360AF1180247E73269CAF81820FB
:1054C0007269CAF81C2018360AF120023DE700BFB5
:1054D00038B5074C0023054608462360FCF734FA2C
:1054E000431C00D038BD2368002BFBD02B6038BD97
:1054F000A493FF1F80EA0102844612F0030F4FD1EC
:1055000011F0030F32D14DF8044D11F0040F51F892
:10551000043B0BD0A3F101329A4312F0803F04BF49
:105520004CF8043B51F8043B16D100BF51F8044B32
:10553000A3F101329A4312F0803FA4F101320BD162
:105540004CF8043BA24312F0803F04BF51F8043BE7
:105550004CF8044BEAD023460CF8013B13F0FF0F44
:105560004FEA3323F8D15DF8044B704711F0010F77
:1055700006D011F8012B0CF8012B002A08BF704748
:1055800011F0020FBFD031F8022B12F0FF0F16BF3F
:105590002CF8022B8CF8002012F47F4FB3D1704707
:1055A00011F8012B0CF8012B002AF9D1704700BF2C
:1055B000FFFFFFFFFFFFFFFFFFFFFFFFFFFFFFFFFB
:1055C00090F800F06DE9024520F007016FF0000C43
:1055D00010F0070491F820F040F049804FF00004EB
:1055E0006FF00700D1E9002391F840F000F10800C6
:1055F00082FA4CF2A4FA8CF283FA4CF3A2FA8CF3FE
:105600004BBBD1E9022382FA4CF200F10800A4FA64
:105610008CF283FA4CF3A2FA8CF3E3B9D1E90423B8
:1056200082FA4CF200F10800A4FA8CF283FA4CF3EF
:10563000A2FA8CF37BB9D1E9062301F1200182FAA9
:105640004CF200F10800A4FA8CF283FA4CF3A2FAAF
:105650008CF3002BC6D0002A04BF04301A4612BABD
:10566000B2FA82F2FDE8024500EBD2007047D1E9C0
:10567000002304F00305C4F100004FEAC50514F04F
:10568000040F91F840F00CFA05F562EA05021CBF20
:1056900063EA050362464FF00004A9E740EA01030C
:1056A0009B0770B42BD1032A29D90C460346214607
:1056B00054F8046BA6F1013525EA060515F0803F84
:1056C00006D1043A032A43F8046B2146EFD8A2B16D
:1056D0000C781C70013A013301313CB16AB111F808
:1056E000014B03F8014B013A002CF7D12AB11A44BF
:1056F000002103F8011B9A42FBD170BC704703469E
:10570000E5E700BF024B13B1024800F005B870474F
:105710000000000025570000002301461A461846E5
:1057200000F04AB938B5074D074C2C1BA41005D022
:10573000013C55F8043D9847002CF9D1BDE83840AC
:1057400000F0BEBC0000000000000000F8B5234FD0
:105750000C460646FFF7C0FCBB685D6825F00305F4
:10576000291B01F6EF7121F47F6121F00F01A1F5F2
:105770008054B4F5805F07DB00213046FFF7A8FEB8
:10578000BB682B44984204D03046FFF7A7FC0020AA
:10579000F8BD61423046FFF79BFE01300DD0104B43
:1057A000BA6819682D1B45F001053046091B556084
:1057B0001960FFF793FC0120F8BD00213046FFF788
:1057C00087FEBA68831A0F2BDEDD064C0449246875
:1057D00043F00103001B53600860D5E7248CFF1FD2
:1057E0006893FF1F3090FF1F002945D02DE9F0413D
:1057F0000D468046FFF770FC55F8047C6A4927F097
:105800000103A5F10804E2188E685068B24220F046
:10581000030062D0FE0750600BD455F8087CE41BEF
:1058200001F1080EA56875453B446FD0E768EF604D
:10583000BD6015186D68ED0742D543F00102626046
:10584000E350B3F5007F18D2DB085A1C4D6851F8BD
:105850003270A76001209B1000FA03F301EBC20035
:105860001D430838E0604D6041F83240FC6040461E
:10587000BDE8F041FFF732BC70475A0A042A53D8FA
:105880009A0902F139077F0002F1380501EB870020
:1058900051F827204449083890424DD0516821F0F2
:1058A00003018B4202D292689042F7D1D068E06047
:1058B000A2608460D4604046BDE8F041FFF70EBCB2
:1058C00095683A4FBD4203443FD0D068E86043F04A
:1058D000010285606260E350B3E7FF07034407D429
:1058E00055F8082CA41A1344A068E268C2609060BE
:1058F0002F4A126843F00100934260608C60B6D377
:105900002C4B40461968FFF721FFB0E71118496892
:10591000C90744D49168D268CA60034443F00100C7
:1059200091606060E350A2E7142A17D802F15C0787
:105930007F0002F15B05A9E7AA104B68012505FA73
:1059400002F213434B600246B1E743F001024C619F
:105950000C61E560A5606260E35088E7542A06D8D0
:105960001A0B02F16F077F0002F16E058EE7B2F5A8
:10597000AA7F06D8DA0B02F178077F0002F17705DB
:1059800084E740F25450824206D89A0C02F17D0717
:105990007F0002F17C0579E7FE277E2576E743F05C
:1059A00001026260E35062E7248CFF1F2C8CFF1F12
:1059B0002C90FF1F6493FF1F2DE9F047254C2568AD
:1059C000D5F848410646884692469946C4B3606871
:1059D0001F2817DC431C76B104EB80050122C5F8B3
:1059E00088A0D4F8881182401143022EC4F888118F
:1059F000C5F808911ED00230636044F82080002072
:105A0000BDE8F087144B03B34FF4C870FFF738F8C4
:105A10000446D0B1D5F84831002780E88800C5F8A1
:105A2000484138460123C4F88871C4F88C71002EAF
:105A3000E1D0D1E7D4F88C110A43C4F88C21DAE71D
:105A400005F5A674C5F84841C1E74FF0FF30BDE841
:105A5000F08700BFA4600000814A00008188A10196
:105A6000070300000001A5FF0D0A3F3F0D0A3E009D
:105A70000D0A3E0D0A2A2A2A2A2A2A2A2A2A2A2AEC
:105A80002A2A2A2A2A2A2A2A2A2A0D0A0A3E00FF14
:105A90008188A10131030000000193FF0D0A3E0D32
:105AA0000A00FFFF0D0A0D0A2A2A2A2053595354CF
:105AB000454D20535441545553202A2A2A0D0A0D8E
:105AC0000A00FFFF494E50555420564F4C54414751
:105AD00045203D2000FFFFFF4F55545055542056A0
